{
  "_format": "hh-sol-artifact-1",
  "contractName": "NFT",
  "sourceName": "contracts/NFT.sol",
  "abi": [
    {
      "inputs": [
        {
          "internalType": "address",
          "name": "marketplaceAddress",
          "type": "address"
        }
      ],
      "stateMutability": "nonpayable",
      "type": "constructor"
    },
    {
      "anonymous": false,
      "inputs": [
        {
          "indexed": true,
          "internalType": "address",
          "name": "owner",
          "type": "address"
        },
        {
          "indexed": true,
          "internalType": "address",
          "name": "approved",
          "type": "address"
        },
        {
          "indexed": true,
          "internalType": "uint256",
          "name": "tokenId",
          "type": "uint256"
        }
      ],
      "name": "Approval",
      "type": "event"
    },
    {
      "anonymous": false,
      "inputs": [
        {
          "indexed": true,
          "internalType": "address",
          "name": "owner",
          "type": "address"
        },
        {
          "indexed": true,
          "internalType": "address",
          "name": "operator",
          "type": "address"
        },
        {
          "indexed": false,
          "internalType": "bool",
          "name": "approved",
          "type": "bool"
        }
      ],
      "name": "ApprovalForAll",
      "type": "event"
    },
    {
      "anonymous": false,
      "inputs": [
        {
          "indexed": true,
          "internalType": "address",
          "name": "from",
          "type": "address"
        },
        {
          "indexed": true,
          "internalType": "address",
          "name": "to",
          "type": "address"
        },
        {
          "indexed": true,
          "internalType": "uint256",
          "name": "tokenId",
          "type": "uint256"
        }
      ],
      "name": "Transfer",
      "type": "event"
    },
    {
      "inputs": [
        {
          "internalType": "string",
          "name": "tokenURI",
          "type": "string"
        }
      ],
      "name": "CreateMedalToken",
      "outputs": [
        {
          "internalType": "uint256",
          "name": "",
          "type": "uint256"
        }
      ],
      "stateMutability": "nonpayable",
      "type": "function"
    },
    {
      "inputs": [
        {
          "internalType": "address",
          "name": "to",
          "type": "address"
        },
        {
          "internalType": "uint256",
          "name": "tokenId",
          "type": "uint256"
        }
      ],
      "name": "approve",
      "outputs": [],
      "stateMutability": "nonpayable",
      "type": "function"
    },
    {
      "inputs": [
        {
          "internalType": "address",
          "name": "owner",
          "type": "address"
        }
      ],
      "name": "balanceOf",
      "outputs": [
        {
          "internalType": "uint256",
          "name": "",
          "type": "uint256"
        }
      ],
      "stateMutability": "view",
      "type": "function"
    },
    {
      "inputs": [
        {
          "internalType": "uint256",
          "name": "tokenId",
          "type": "uint256"
        }
      ],
      "name": "getApproved",
      "outputs": [
        {
          "internalType": "address",
          "name": "",
          "type": "address"
        }
      ],
      "stateMutability": "view",
      "type": "function"
    },
    {
      "inputs": [
        {
          "internalType": "address",
          "name": "owner",
          "type": "address"
        },
        {
          "internalType": "address",
          "name": "operator",
          "type": "address"
        }
      ],
      "name": "isApprovedForAll",
      "outputs": [
        {
          "internalType": "bool",
          "name": "",
          "type": "bool"
        }
      ],
      "stateMutability": "view",
      "type": "function"
    },
    {
      "inputs": [],
      "name": "name",
      "outputs": [
        {
          "internalType": "string",
          "name": "",
          "type": "string"
        }
      ],
      "stateMutability": "view",
      "type": "function"
    },
    {
      "inputs": [
        {
          "internalType": "uint256",
          "name": "tokenId",
          "type": "uint256"
        }
      ],
      "name": "ownerOf",
      "outputs": [
        {
          "internalType": "address",
          "name": "",
          "type": "address"
        }
      ],
      "stateMutability": "view",
      "type": "function"
    },
    {
      "inputs": [
        {
          "internalType": "address",
          "name": "from",
          "type": "address"
        },
        {
          "internalType": "address",
          "name": "to",
          "type": "address"
        },
        {
          "internalType": "uint256",
          "name": "tokenId",
          "type": "uint256"
        }
      ],
      "name": "safeTransferFrom",
      "outputs": [],
      "stateMutability": "nonpayable",
      "type": "function"
    },
    {
      "inputs": [
        {
          "internalType": "address",
          "name": "from",
          "type": "address"
        },
        {
          "internalType": "address",
          "name": "to",
          "type": "address"
        },
        {
          "internalType": "uint256",
          "name": "tokenId",
          "type": "uint256"
        },
        {
          "internalType": "bytes",
          "name": "_data",
          "type": "bytes"
        }
      ],
      "name": "safeTransferFrom",
      "outputs": [],
      "stateMutability": "nonpayable",
      "type": "function"
    },
    {
      "inputs": [
        {
          "internalType": "address",
          "name": "operator",
          "type": "address"
        },
        {
          "internalType": "bool",
          "name": "approved",
          "type": "bool"
        }
      ],
      "name": "setApprovalForAll",
      "outputs": [],
      "stateMutability": "nonpayable",
      "type": "function"
    },
    {
      "inputs": [
        {
          "internalType": "bytes4",
          "name": "interfaceId",
          "type": "bytes4"
        }
      ],
      "name": "supportsInterface",
      "outputs": [
        {
          "internalType": "bool",
          "name": "",
          "type": "bool"
        }
      ],
      "stateMutability": "view",
      "type": "function"
    },
    {
      "inputs": [],
      "name": "symbol",
      "outputs": [
        {
          "internalType": "string",
          "name": "",
          "type": "string"
        }
      ],
      "stateMutability": "view",
      "type": "function"
    },
    {
      "inputs": [
        {
          "internalType": "uint256",
          "name": "tokenId",
          "type": "uint256"
        }
      ],
      "name": "tokenURI",
      "outputs": [
        {
          "internalType": "string",
          "name": "",
          "type": "string"
        }
      ],
      "stateMutability": "view",
      "type": "function"
    },
    {
      "inputs": [
        {
          "internalType": "address",
          "name": "from",
          "type": "address"
        },
        {
          "internalType": "address",
          "name": "to",
          "type": "address"
        },
        {
          "internalType": "uint256",
          "name": "tokenId",
          "type": "uint256"
        }
      ],
      "name": "transferFrom",
      "outputs": [],
      "stateMutability": "nonpayable",
      "type": "function"
    }
  ],
  "bytecode": "0x60806040523480156200001157600080fd5b50604051620019f9380380620019f9833981016040819052620000349162000167565b60408051808201825260098152684d657461766572736560b81b6020808301918252835180850190945260048452631351551560e21b9084015281519192916200008191600091620000c1565b50805162000097906001906020840190620000c1565b5050600880546001600160a01b0319166001600160a01b03939093169290921790915550620001d4565b828054620000cf9062000197565b90600052602060002090601f016020900481019282620000f357600085556200013e565b82601f106200010e57805160ff19168380011785556200013e565b828001600101855582156200013e579182015b828111156200013e57825182559160200191906001019062000121565b506200014c92915062000150565b5090565b5b808211156200014c576000815560010162000151565b60006020828403121562000179578081fd5b81516001600160a01b038116811462000190578182fd5b9392505050565b600181811c90821680620001ac57607f821691505b60208210811415620001ce57634e487b7160e01b600052602260045260246000fd5b50919050565b61181580620001e46000396000f3fe608060405234801561001057600080fd5b50600436106100ea5760003560e01c80636352211e1161008c578063a22cb46511610066578063a22cb465146101e1578063b88d4fde146101f4578063c87b56dd14610207578063e985e9c51461021a57600080fd5b80636352211e146101b357806370a08231146101c657806395d89b41146101d957600080fd5b8063095ea7b3116100c8578063095ea7b31461015757806323b872dd1461016c57806342842e0e1461017f5780634764b2f31461019257600080fd5b806301ffc9a7146100ef57806306fdde0314610117578063081812fc1461012c575b600080fd5b6101026100fd3660046114a8565b610256565b60405190151581526020015b60405180910390f35b61011f6102a8565b60405161010e91906115d6565b61013f61013a366004611526565b61033a565b6040516001600160a01b03909116815260200161010e565b61016a61016536600461147f565b6103c7565b005b61016a61017a366004611391565b6104dd565b61016a61018d366004611391565b61050e565b6101a56101a03660046114e0565b610529565b60405190815260200161010e565b61013f6101c1366004611526565b6105d3565b6101a56101d4366004611345565b61064a565b61011f6106d1565b61016a6101ef366004611445565b6106e0565b61016a6102023660046113cc565b6106ef565b61011f610215366004611526565b610727565b61010261022836600461135f565b6001600160a01b03918216600090815260056020908152604080832093909416825291909152205460ff1690565b60006001600160e01b031982166380ac58cd60e01b148061028757506001600160e01b03198216635b5e139f60e01b145b806102a257506301ffc9a760e01b6001600160e01b03198316145b92915050565b6060600080546102b79061171d565b80601f01602080910402602001604051908101604052809291908181526020018280546102e39061171d565b80156103305780601f1061030557610100808354040283529160200191610330565b820191906000526020600020905b81548152906001019060200180831161031357829003601f168201915b5050505050905090565b60006103458261089e565b6103ab5760405162461bcd60e51b815260206004820152602c60248201527f4552433732313a20617070726f76656420717565727920666f72206e6f6e657860448201526b34b9ba32b73a103a37b5b2b760a11b60648201526084015b60405180910390fd5b506000908152600460205260409020546001600160a01b031690565b60006103d2826105d3565b9050806001600160a01b0316836001600160a01b031614156104405760405162461bcd60e51b815260206004820152602160248201527f4552433732313a20617070726f76616c20746f2063757272656e74206f776e656044820152603960f91b60648201526084016103a2565b336001600160a01b038216148061045c575061045c8133610228565b6104ce5760405162461bcd60e51b815260206004820152603860248201527f4552433732313a20617070726f76652063616c6c6572206973206e6f74206f7760448201527f6e6572206e6f7220617070726f76656420666f7220616c6c000000000000000060648201526084016103a2565b6104d883836108bb565b505050565b6104e73382610929565b6105035760405162461bcd60e51b81526004016103a29061165d565b6104d8838383610a0f565b6104d8838383604051806020016040528060008152506106ef565b600061055e6040518060400160405280601281526020017121b932b0ba329026b2b230b6102a37b5b2b760711b815250610baf565b61056c600780546001019055565b600061057760075490565b90506105833382610bf5565b61058d8184610d28565b6008546105a4906001600160a01b031660016106e0565b6102a26040518060400160405280600d81526020016c02732bb902a37b5b2b71012b21609d1b81525082610db3565b6000818152600260205260408120546001600160a01b0316806102a25760405162461bcd60e51b815260206004820152602960248201527f4552433732313a206f776e657220717565727920666f72206e6f6e657869737460448201526832b73a103a37b5b2b760b91b60648201526084016103a2565b60006001600160a01b0382166106b55760405162461bcd60e51b815260206004820152602a60248201527f4552433732313a2062616c616e636520717565727920666f7220746865207a65604482015269726f206164647265737360b01b60648201526084016103a2565b506001600160a01b031660009081526003602052604090205490565b6060600180546102b79061171d565b6106eb338383610df8565b5050565b6106f93383610929565b6107155760405162461bcd60e51b81526004016103a29061165d565b61072184848484610ec7565b50505050565b60606107328261089e565b6107985760405162461bcd60e51b815260206004820152603160248201527f45524337323155524953746f726167653a2055524920717565727920666f72206044820152703737b732bc34b9ba32b73a103a37b5b2b760791b60648201526084016103a2565b600082815260066020526040812080546107b19061171d565b80601f01602080910402602001604051908101604052809291908181526020018280546107dd9061171d565b801561082a5780601f106107ff5761010080835404028352916020019161082a565b820191906000526020600020905b81548152906001019060200180831161080d57829003601f168201915b50505050509050600061084860408051602081019091526000815290565b905080516000141561085b575092915050565b81511561088d57808260405160200161087592919061156a565b60405160208183030381529060405292505050919050565b61089684610efa565b949350505050565b6000908152600260205260409020546001600160a01b0316151590565b600081815260046020526040902080546001600160a01b0319166001600160a01b03841690811790915581906108f0826105d3565b6001600160a01b03167f8c5be1e5ebec7d5bd14f71427d1e84f3dd0314c0f7b2291e5b200ac8c7c3b92560405160405180910390a45050565b60006109348261089e565b6109955760405162461bcd60e51b815260206004820152602c60248201527f4552433732313a206f70657261746f7220717565727920666f72206e6f6e657860448201526b34b9ba32b73a103a37b5b2b760a11b60648201526084016103a2565b60006109a0836105d3565b9050806001600160a01b0316846001600160a01b031614806109db5750836001600160a01b03166109d08461033a565b6001600160a01b0316145b8061089657506001600160a01b0380821660009081526005602090815260408083209388168352929052205460ff16610896565b826001600160a01b0316610a22826105d3565b6001600160a01b031614610a8a5760405162461bcd60e51b815260206004820152602960248201527f4552433732313a207472616e73666572206f6620746f6b656e2074686174206960448201526839903737ba1037bbb760b91b60648201526084016103a2565b6001600160a01b038216610aec5760405162461bcd60e51b8152602060048201526024808201527f4552433732313a207472616e7366657220746f20746865207a65726f206164646044820152637265737360e01b60648201526084016103a2565b610af76000826108bb565b6001600160a01b0383166000908152600360205260408120805460019290610b209084906116da565b90915550506001600160a01b0382166000908152600360205260408120805460019290610b4e9084906116ae565b909155505060008181526002602052604080822080546001600160a01b0319166001600160a01b0386811691821790925591518493918716917fddf252ad1be2c89b69c2b068fc378daa952ba7f163c4a11628f55a4df523b3ef91a4505050565b610bf281604051602401610bc391906115d6565b60408051601f198184030181529190526020810180516001600160e01b031663104c13eb60e21b179052610fd2565b50565b6001600160a01b038216610c4b5760405162461bcd60e51b815260206004820181905260248201527f4552433732313a206d696e7420746f20746865207a65726f206164647265737360448201526064016103a2565b610c548161089e565b15610ca15760405162461bcd60e51b815260206004820152601c60248201527f4552433732313a20746f6b656e20616c7265616479206d696e7465640000000060448201526064016103a2565b6001600160a01b0382166000908152600360205260408120805460019290610cca9084906116ae565b909155505060008181526002602052604080822080546001600160a01b0319166001600160a01b03861690811790915590518392907fddf252ad1be2c89b69c2b068fc378daa952ba7f163c4a11628f55a4df523b3ef908290a45050565b610d318261089e565b610d945760405162461bcd60e51b815260206004820152602e60248201527f45524337323155524953746f726167653a2055524920736574206f66206e6f6e60448201526d32bc34b9ba32b73a103a37b5b2b760911b60648201526084016103a2565b600082815260066020908152604090912082516104d89284019061121a565b6106eb8282604051602401610dc99291906115e9565b60408051601f198184030181529190526020810180516001600160e01b03166309710a9d60e41b179052610fd2565b816001600160a01b0316836001600160a01b03161415610e5a5760405162461bcd60e51b815260206004820152601960248201527f4552433732313a20617070726f766520746f2063616c6c65720000000000000060448201526064016103a2565b6001600160a01b03838116600081815260056020908152604080832094871680845294825291829020805460ff191686151590811790915591519182527f17307eab39ab6107e8899845ad3d59bd9653f200f220920489ca2b5937696c31910160405180910390a3505050565b610ed2848484610a0f565b610ede84848484610ff3565b6107215760405162461bcd60e51b81526004016103a29061160b565b6060610f058261089e565b610f695760405162461bcd60e51b815260206004820152602f60248201527f4552433732314d657461646174613a2055524920717565727920666f72206e6f60448201526e3732bc34b9ba32b73a103a37b5b2b760891b60648201526084016103a2565b6000610f8060408051602081019091526000815290565b90506000815111610fa05760405180602001604052806000815250610fcb565b80610faa84611100565b604051602001610fbb92919061156a565b6040516020818303038152906040525b9392505050565b80516a636f6e736f6c652e6c6f67602083016000808483855afa5050505050565b60006001600160a01b0384163b156110f557604051630a85bd0160e11b81526001600160a01b0385169063150b7a0290611037903390899088908890600401611599565b602060405180830381600087803b15801561105157600080fd5b505af1925050508015611081575060408051601f3d908101601f1916820190925261107e918101906114c4565b60015b6110db573d8080156110af576040519150601f19603f3d011682016040523d82523d6000602084013e6110b4565b606091505b5080516110d35760405162461bcd60e51b81526004016103a29061160b565b805181602001fd5b6001600160e01b031916630a85bd0160e11b149050610896565b506001949350505050565b6060816111245750506040805180820190915260018152600360fc1b602082015290565b8160005b811561114e578061113881611758565b91506111479050600a836116c6565b9150611128565b60008167ffffffffffffffff81111561117757634e487b7160e01b600052604160045260246000fd5b6040519080825280601f01601f1916602001820160405280156111a1576020820181803683370190505b5090505b8415610896576111b66001836116da565b91506111c3600a86611773565b6111ce9060306116ae565b60f81b8183815181106111f157634e487b7160e01b600052603260045260246000fd5b60200101906001600160f81b031916908160001a905350611213600a866116c6565b94506111a5565b8280546112269061171d565b90600052602060002090601f016020900481019282611248576000855561128e565b82601f1061126157805160ff191683800117855561128e565b8280016001018555821561128e579182015b8281111561128e578251825591602001919060010190611273565b5061129a92915061129e565b5090565b5b8082111561129a576000815560010161129f565b600067ffffffffffffffff808411156112ce576112ce6117b3565b604051601f8501601f19908116603f011681019082821181831017156112f6576112f66117b3565b8160405280935085815286868601111561130f57600080fd5b858560208301376000602087830101525050509392505050565b80356001600160a01b038116811461134057600080fd5b919050565b600060208284031215611356578081fd5b610fcb82611329565b60008060408385031215611371578081fd5b61137a83611329565b915061138860208401611329565b90509250929050565b6000806000606084860312156113a5578081fd5b6113ae84611329565b92506113bc60208501611329565b9150604084013590509250925092565b600080600080608085870312156113e1578081fd5b6113ea85611329565b93506113f860208601611329565b925060408501359150606085013567ffffffffffffffff81111561141a578182fd5b8501601f8101871361142a578182fd5b611439878235602084016112b3565b91505092959194509250565b60008060408385031215611457578182fd5b61146083611329565b915060208301358015158114611474578182fd5b809150509250929050565b60008060408385031215611491578182fd5b61149a83611329565b946020939093013593505050565b6000602082840312156114b9578081fd5b8135610fcb816117c9565b6000602082840312156114d5578081fd5b8151610fcb816117c9565b6000602082840312156114f1578081fd5b813567ffffffffffffffff811115611507578182fd5b8201601f81018413611517578182fd5b610896848235602084016112b3565b600060208284031215611537578081fd5b5035919050565b600081518084526115568160208601602086016116f1565b601f01601f19169290920160200192915050565b6000835161157c8184602088016116f1565b8351908301906115908183602088016116f1565b01949350505050565b6001600160a01b03858116825284166020820152604081018390526080606082018190526000906115cc9083018461153e565b9695505050505050565b602081526000610fcb602083018461153e565b6040815260006115fc604083018561153e565b90508260208301529392505050565b60208082526032908201527f4552433732313a207472616e7366657220746f206e6f6e20455243373231526560408201527131b2b4bb32b91034b6b83632b6b2b73a32b960711b606082015260800190565b60208082526031908201527f4552433732313a207472616e736665722063616c6c6572206973206e6f74206f6040820152701ddb995c881b9bdc88185c1c1c9bdd9959607a1b606082015260800190565b600082198211156116c1576116c1611787565b500190565b6000826116d5576116d561179d565b500490565b6000828210156116ec576116ec611787565b500390565b60005b8381101561170c5781810151838201526020016116f4565b838111156107215750506000910152565b600181811c9082168061173157607f821691505b6020821081141561175257634e487b7160e01b600052602260045260246000fd5b50919050565b600060001982141561176c5761176c611787565b5060010190565b6000826117825761178261179d565b500690565b634e487b7160e01b600052601160045260246000fd5b634e487b7160e01b600052601260045260246000fd5b634e487b7160e01b600052604160045260246000fd5b6001600160e01b031981168114610bf257600080fdfea2646970667358221220d985415147ccc8fed2e16433ccfa88bd757eb614de41cb2bef1ac7b8ce8f1d3d64736f6c63430008040033",
  "linkReferences": {},
  "deployedLinkReferences": {}
}