{
  "_format": "hh-sol-artifact-1",
  "contractName": "NFTManager",
  "sourceName": "contracts/NFTManager.sol",
  "abi": [
    {
      "inputs": [],
      "stateMutability": "nonpayable",
      "type": "constructor"
    },
    {
      "anonymous": false,
      "inputs": [
        {
          "indexed": true,
          "internalType": "uint256",
          "name": "itemId",
          "type": "uint256"
        },
        {
          "indexed": true,
          "internalType": "address",
          "name": "nftContract",
          "type": "address"
        },
        {
          "indexed": true,
          "internalType": "uint256",
          "name": "tokenId",
          "type": "uint256"
        },
        {
          "indexed": false,
          "internalType": "address",
          "name": "owner",
          "type": "address"
        }
      ],
      "name": "MarketItemCreated",
      "type": "event"
    },
    {
      "inputs": [
        {
          "internalType": "address",
          "name": "nftContract",
          "type": "address"
        },
        {
          "internalType": "uint256",
          "name": "tokenId",
          "type": "uint256"
        }
      ],
      "name": "CreateDigitalMedal",
      "outputs": [],
      "stateMutability": "payable",
      "type": "function"
    },
    {
      "inputs": [],
      "name": "fetchMyNFTs",
      "outputs": [
        {
          "components": [
            {
              "internalType": "uint256",
              "name": "itemId",
              "type": "uint256"
            },
            {
              "internalType": "address",
              "name": "nftContract",
              "type": "address"
            },
            {
              "internalType": "uint256",
              "name": "tokenId",
              "type": "uint256"
            },
            {
              "internalType": "address payable",
              "name": "owner",
              "type": "address"
            }
          ],
          "internalType": "struct NFTManager.MarketItem[]",
          "name": "",
          "type": "tuple[]"
        }
      ],
      "stateMutability": "view",
      "type": "function"
    }
  ],
  "bytecode": "0x608060405234801561001057600080fd5b506001600055600280546001600160a01b0319163317905561069e806100376000396000f3fe6080604052600436106100295760003560e01c8063202e37401461002e578063d29f4ee214610059575b600080fd5b34801561003a57600080fd5b5061004361006e565b604051610050919061057a565b60405180910390f35b61006c6100673660046104f9565b610235565b005b60606100b76040518060400160405280601f81526020017f426567696e203d3d3e2066657463684d794e46547320436f756e743a202573008152506100b260015490565b610449565b60006100c260015490565b90506000808267ffffffffffffffff8111156100ee57634e487b7160e01b600052604160045260246000fd5b60405190808252806020026020018201604052801561014057816020015b60408051608081018252600080825260208083018290529282018190526060820152825260001990920191018161010c5790505b50905060005b838110156101f957600061015b82600161061f565b60008181526003602081815260409283902083516080810185528154815260018201546001600160a01b0390811693820193909352600282015494810194909452918201541660608301528551929350918590879081106101cc57634e487b7160e01b600052603260045260246000fd5b60209081029190910101526101e260018661061f565b9450505080806101f190610637565b915050610146565b5061022e6040518060400160405280601381526020017219995d18da135e5391951cc80f0f4f48115b99606a1b815250610492565b9392505050565b6002600054141561028c5760405162461bcd60e51b815260206004820152601f60248201527f5265656e7472616e637947756172643a207265656e7472616e742063616c6c00604482015260640160405180910390fd5b600260005560408051808201909152601e81527f426567696e203d3d3e20437265617465204469676974616c204d6564616c000060208201526102ce90610492565b6102dc600180546001019055565b60006102e760015490565b604080516080810182528281526001600160a01b038681166020808401828152848601898152336060870181815260008a81526003958690528990209751885592516001880180549188166001600160a01b031992831617905591516002880155915195909201805495909416949091169390931790915591516323b872dd60e01b8152600481019190915230602482015260448101859052919250906323b872dd90606401600060405180830381600087803b1580156103a757600080fd5b505af11580156103bb573d6000803e3d6000fd5b50506040513381528492506001600160a01b038616915083907f60c2804bbbcca7c67d5b44b020c9ff41b45a5f333a0ba093f8737ab8206c18239060200160405180910390a461043f6040518060400160405280601c81526020017f437265617465204469676974616c204d6564616c203c3d3d20456e6400000000815250610492565b5050600160005550565b61048e828260405160240161045f9291906105fd565b60408051601f198184030181529190526020810180516001600160e01b03166309710a9d60e41b1790526104d8565b5050565b6104d5816040516024016104a691906105ea565b60408051601f198184030181529190526020810180516001600160e01b031663104c13eb60e21b1790526104d8565b50565b80516a636f6e736f6c652e6c6f67602083016000808483855afa5050505050565b6000806040838503121561050b578182fd5b82356001600160a01b0381168114610521578283fd5b946020939093013593505050565b60008151808452815b8181101561055457602081850181015186830182015201610538565b818111156105655782602083870101525b50601f01601f19169290920160200192915050565b602080825282518282018190526000919060409081850190868401855b828110156105dd57815180518552868101516001600160a01b03908116888701528682015187870152606091820151169085015260809093019290850190600101610597565b5091979650505050505050565b60208152600061022e602083018461052f565b604081526000610610604083018561052f565b90508260208301529392505050565b6000821982111561063257610632610652565b500190565b600060001982141561064b5761064b610652565b5060010190565b634e487b7160e01b600052601160045260246000fdfea2646970667358221220015d3a8360c5178e0f0c7c9c03bc1ed1feb68b5078c4e420c7a2519a0a1a974b64736f6c63430008040033",
  "linkReferences": {},
  "deployedLinkReferences": {}
}