{
  "_format": "hh-sol-artifact-1",
  "contractName": "NFTManager",
  "sourceName": "contracts/NFTManager.sol",
  "abi": [
    {
      "inputs": [],
      "stateMutability": "nonpayable",
      "type": "constructor"
    },
    {
      "anonymous": false,
      "inputs": [
        {
          "indexed": true,
          "internalType": "uint256",
          "name": "itemId",
          "type": "uint256"
        },
        {
          "indexed": true,
          "internalType": "address",
          "name": "nftContract",
          "type": "address"
        },
        {
          "indexed": true,
          "internalType": "uint256",
          "name": "tokenId",
          "type": "uint256"
        },
        {
          "indexed": false,
          "internalType": "address",
          "name": "owner",
          "type": "address"
        }
      ],
      "name": "MarketItemCreated",
      "type": "event"
    },
    {
      "inputs": [
        {
          "internalType": "address",
          "name": "nftContract",
          "type": "address"
        },
        {
          "internalType": "uint256",
          "name": "tokenId",
          "type": "uint256"
        }
      ],
      "name": "createRecordThrowItem",
      "outputs": [],
      "stateMutability": "payable",
      "type": "function"
    },
    {
      "inputs": [],
      "name": "fetchMyNFTs",
      "outputs": [
        {
          "components": [
            {
              "internalType": "uint256",
              "name": "itemId",
              "type": "uint256"
            },
            {
              "internalType": "address",
              "name": "nftContract",
              "type": "address"
            },
            {
              "internalType": "uint256",
              "name": "tokenId",
              "type": "uint256"
            },
            {
              "internalType": "address payable",
              "name": "owner",
              "type": "address"
            }
          ],
          "internalType": "struct NFTManager.MarketItem[]",
          "name": "",
          "type": "tuple[]"
        }
      ],
      "stateMutability": "view",
      "type": "function"
    }
  ],
  "bytecode": "0x608060405234801561001057600080fd5b506001600055600280546001600160a01b0319163317905561050d806100376000396000f3fe6080604052600436106100295760003560e01c8063202e37401461002e578063cbd89c3414610059575b600080fd5b34801561003a57600080fd5b5061004361006e565b604051610050919061041e565b60405180910390f35b61006c6100673660046103e8565b61024f565b005b6060600061007b60015490565b905060008060005b838110156100de57336003600061009b84600161048e565b81526020810191909152604001600020600301546001600160a01b031614156100cc576100c960018461048e565b92505b806100d6816104a6565b915050610083565b5060008267ffffffffffffffff81111561010857634e487b7160e01b600052604160045260246000fd5b60405190808252806020026020018201604052801561015a57816020015b6040805160808101825260008082526020808301829052928201819052606082015282526000199092019101816101265790505b50905060005b8481101561024657336003600061017884600161048e565b81526020810191909152604001600020600301546001600160a01b031614156102345760006101a882600161048e565b60008181526003602081815260409283902083516080810185528154815260018201546001600160a01b03908116938201939093526002820154948101949094529182015416606083015285519293509185908790811061021957634e487b7160e01b600052603260045260246000fd5b602090810291909101015261022f60018661048e565b945050505b8061023e816104a6565b915050610160565b50949350505050565b600260005414156102a65760405162461bcd60e51b815260206004820152601f60248201527f5265656e7472616e637947756172643a207265656e7472616e742063616c6c00604482015260640160405180910390fd5b60026000556102b9600180546001019055565b60006102c460015490565b604080516080810182528281526001600160a01b038681166020808401828152848601898152336060870181815260008a81526003958690528990209751885592516001880180549188166001600160a01b031992831617905591516002880155915195909201805495909416949091169390931790915591516323b872dd60e01b8152600481019190915230602482015260448101859052919250906323b872dd90606401600060405180830381600087803b15801561038457600080fd5b505af1158015610398573d6000803e3d6000fd5b50506040513381528492506001600160a01b038616915083907f60c2804bbbcca7c67d5b44b020c9ff41b45a5f333a0ba093f8737ab8206c18239060200160405180910390a45050600160005550565b600080604083850312156103fa578182fd5b82356001600160a01b0381168114610410578283fd5b946020939093013593505050565b602080825282518282018190526000919060409081850190868401855b8281101561048157815180518552868101516001600160a01b0390811688870152868201518787015260609182015116908501526080909301929085019060010161043b565b5091979650505050505050565b600082198211156104a1576104a16104c1565b500190565b60006000198214156104ba576104ba6104c1565b5060010190565b634e487b7160e01b600052601160045260246000fdfea264697066735822122012ba4d28f11f2843ebf86ffb53d7ea406292279f7d155079e1fc8a17915539b564736f6c63430008040033",
  "linkReferences": {},
  "deployedLinkReferences": {}
}