{
  "_format": "hh-sol-artifact-1",
  "contractName": "NFTManager",
  "sourceName": "contracts/NFTManager.sol",
  "abi": [
    {
      "inputs": [],
      "stateMutability": "nonpayable",
      "type": "constructor"
    },
    {
      "anonymous": false,
      "inputs": [
        {
          "indexed": true,
          "internalType": "uint256",
          "name": "itemId",
          "type": "uint256"
        },
        {
          "indexed": true,
          "internalType": "address",
          "name": "nftContract",
          "type": "address"
        },
        {
          "indexed": true,
          "internalType": "uint256",
          "name": "tokenId",
          "type": "uint256"
        },
        {
          "indexed": false,
          "internalType": "address",
          "name": "owner",
          "type": "address"
        }
      ],
      "name": "MarketItemCreated",
      "type": "event"
    },
    {
      "inputs": [
        {
          "internalType": "address",
          "name": "nftContract",
          "type": "address"
        },
        {
          "internalType": "uint256",
          "name": "tokenId",
          "type": "uint256"
        }
      ],
      "name": "createMarketItem",
      "outputs": [],
      "stateMutability": "payable",
      "type": "function"
    },
    {
      "inputs": [],
      "name": "fetchMyNFTs",
      "outputs": [
        {
          "components": [
            {
              "internalType": "uint256",
              "name": "itemId",
              "type": "uint256"
            },
            {
              "internalType": "address",
              "name": "nftContract",
              "type": "address"
            },
            {
              "internalType": "uint256",
              "name": "tokenId",
              "type": "uint256"
            },
            {
              "internalType": "address payable",
              "name": "owner",
              "type": "address"
            }
          ],
          "internalType": "struct NFTManager.MarketItem[]",
          "name": "",
          "type": "tuple[]"
        }
      ],
      "stateMutability": "view",
      "type": "function"
    }
  ],
  "bytecode": "0x608060405234801561001057600080fd5b50600160008190555033600260006101000a81548173ffffffffffffffffffffffffffffffffffffffff021916908373ffffffffffffffffffffffffffffffffffffffff160217905550610a69806100696000396000f3fe6080604052600436106100295760003560e01c8063202e37401461002e578063dd5f851814610059575b600080fd5b34801561003a57600080fd5b50610043610075565b6040516100509190610834565b60405180910390f35b610073600480360381019061006e919061066d565b610394565b005b6060600061008360016105cb565b905060008060005b8381101561012c573373ffffffffffffffffffffffffffffffffffffffff16600360006001846100bb91906108c0565b815260200190815260200160002060030160009054906101000a900473ffffffffffffffffffffffffffffffffffffffff1673ffffffffffffffffffffffffffffffffffffffff1614156101195760018361011691906108c0565b92505b808061012490610964565b91505061008b565b5060008267ffffffffffffffff81111561016f577f4e487b7100000000000000000000000000000000000000000000000000000000600052604160045260246000fd5b6040519080825280602002602001820160405280156101a857816020015b6101956105ef565b81526020019060019003908161018d5790505b50905060005b84811015610389573373ffffffffffffffffffffffffffffffffffffffff16600360006001846101de91906108c0565b815260200190815260200160002060030160009054906101000a900473ffffffffffffffffffffffffffffffffffffffff1673ffffffffffffffffffffffffffffffffffffffff16141561037657600060018261023b91906108c0565b9050600060036000838152602001908152602001600020905080604051806080016040529081600082015481526020016001820160009054906101000a900473ffffffffffffffffffffffffffffffffffffffff1673ffffffffffffffffffffffffffffffffffffffff1673ffffffffffffffffffffffffffffffffffffffff168152602001600282015481526020016003820160009054906101000a900473ffffffffffffffffffffffffffffffffffffffff1673ffffffffffffffffffffffffffffffffffffffff1673ffffffffffffffffffffffffffffffffffffffff1681525050848681518110610359577f4e487b7100000000000000000000000000000000000000000000000000000000600052603260045260246000fd5b602002602001018190525060018561037191906108c0565b945050505b808061038190610964565b9150506101ae565b508094505050505090565b600260005414156103da576040517f08c379a00000000000000000000000000000000000000000000000000000000081526004016103d190610856565b60405180910390fd5b60026000819055506103ec60016105d9565b60006103f860016105cb565b905060405180608001604052808281526020018473ffffffffffffffffffffffffffffffffffffffff1681526020018381526020013373ffffffffffffffffffffffffffffffffffffffff16815250600360008381526020019081526020016000206000820151816000015560208201518160010160006101000a81548173ffffffffffffffffffffffffffffffffffffffff021916908373ffffffffffffffffffffffffffffffffffffffff1602179055506040820151816002015560608201518160030160006101000a81548173ffffffffffffffffffffffffffffffffffffffff021916908373ffffffffffffffffffffffffffffffffffffffff1602179055509050508273ffffffffffffffffffffffffffffffffffffffff166323b872dd3330856040518463ffffffff1660e01b815260040161053c939291906107fd565b600060405180830381600087803b15801561055657600080fd5b505af115801561056a573d6000803e3d6000fd5b50505050818373ffffffffffffffffffffffffffffffffffffffff16827f60c2804bbbcca7c67d5b44b020c9ff41b45a5f333a0ba093f8737ab8206c1823336040516105b691906107e2565b60405180910390a45060016000819055505050565b600081600001549050919050565b6001816000016000828254019250508190555050565b604051806080016040528060008152602001600073ffffffffffffffffffffffffffffffffffffffff16815260200160008152602001600073ffffffffffffffffffffffffffffffffffffffff1681525090565b60008135905061065281610a05565b92915050565b60008135905061066781610a1c565b92915050565b6000806040838503121561068057600080fd5b600061068e85828601610643565b925050602061069f85828601610658565b9150509250929050565b60006106b5838361076f565b60808301905092915050565b6106ca81610928565b82525050565b6106d981610916565b82525050565b6106e881610916565b82525050565b60006106f982610886565b610703818561089e565b935061070e83610876565b8060005b8381101561073f57815161072688826106a9565b975061073183610891565b925050600181019050610712565b5085935050505092915050565b6000610759601f836108af565b9150610764826109dc565b602082019050919050565b60808201600082015161078560008501826107c4565b50602082015161079860208501826106d0565b5060408201516107ab60408501826107c4565b5060608201516107be60608501826106c1565b50505050565b6107cd8161095a565b82525050565b6107dc8161095a565b82525050565b60006020820190506107f760008301846106df565b92915050565b600060608201905061081260008301866106df565b61081f60208301856106df565b61082c60408301846107d3565b949350505050565b6000602082019050818103600083015261084e81846106ee565b905092915050565b6000602082019050818103600083015261086f8161074c565b9050919050565b6000819050602082019050919050565b600081519050919050565b6000602082019050919050565b600082825260208201905092915050565b600082825260208201905092915050565b60006108cb8261095a565b91506108d68361095a565b9250827fffffffffffffffffffffffffffffffffffffffffffffffffffffffffffffffff0382111561090b5761090a6109ad565b5b828201905092915050565b60006109218261093a565b9050919050565b60006109338261093a565b9050919050565b600073ffffffffffffffffffffffffffffffffffffffff82169050919050565b6000819050919050565b600061096f8261095a565b91507fffffffffffffffffffffffffffffffffffffffffffffffffffffffffffffffff8214156109a2576109a16109ad565b5b600182019050919050565b7f4e487b7100000000000000000000000000000000000000000000000000000000600052601160045260246000fd5b7f5265656e7472616e637947756172643a207265656e7472616e742063616c6c00600082015250565b610a0e81610916565b8114610a1957600080fd5b50565b610a258161095a565b8114610a3057600080fd5b5056fea2646970667358221220c35865a8e586e3686fecc592a5181d18528380fdb430e159b51333a85aaeadfd64736f6c63430008040033",
  "linkReferences": {},
  "deployedLinkReferences": {}
}