{
  "_format": "hh-sol-artifact-1",
  "contractName": "ScoreManager",
  "sourceName": "contracts/ScoreManager.sol",
  "abi": [
    {
      "inputs": [
        {
          "internalType": "uint256",
          "name": "aScoreID",
          "type": "uint256"
        },
        {
          "internalType": "uint256",
          "name": "aNewMaxThrow",
          "type": "uint256"
        }
      ],
      "name": "ChangeAScore",
      "outputs": [],
      "stateMutability": "nonpayable",
      "type": "function"
    },
    {
      "inputs": [
        {
          "internalType": "string",
          "name": "anAthletsName",
          "type": "string"
        }
      ],
      "name": "CreateAthlete",
      "outputs": [],
      "stateMutability": "nonpayable",
      "type": "function"
    },
    {
      "inputs": [
        {
          "internalType": "string",
          "name": "aLable",
          "type": "string"
        },
        {
          "internalType": "string",
          "name": "aMeetsLocation",
          "type": "string"
        },
        {
          "internalType": "uint256",
          "name": "aMeetsTime",
          "type": "uint256"
        }
      ],
      "name": "CreateMeet",
      "outputs": [],
      "stateMutability": "nonpayable",
      "type": "function"
    },
    {
      "inputs": [
        {
          "internalType": "string",
          "name": "anAthletsName",
          "type": "string"
        },
        {
          "internalType": "string",
          "name": "aMeetsName",
          "type": "string"
        },
        {
          "internalType": "uint256",
          "name": "aThrowDistance",
          "type": "uint256"
        }
      ],
      "name": "EnterAScore",
      "outputs": [],
      "stateMutability": "nonpayable",
      "type": "function"
    },
    {
      "inputs": [],
      "name": "GetAthletsCount",
      "outputs": [
        {
          "internalType": "uint256",
          "name": "",
          "type": "uint256"
        }
      ],
      "stateMutability": "view",
      "type": "function"
    },
    {
      "inputs": [],
      "name": "GetMeetsCount",
      "outputs": [
        {
          "internalType": "uint256",
          "name": "",
          "type": "uint256"
        }
      ],
      "stateMutability": "view",
      "type": "function"
    },
    {
      "inputs": [],
      "name": "MAX_INT_TYPE",
      "outputs": [
        {
          "internalType": "uint256",
          "name": "",
          "type": "uint256"
        }
      ],
      "stateMutability": "view",
      "type": "function"
    },
    {
      "inputs": [
        {
          "internalType": "uint256",
          "name": "",
          "type": "uint256"
        }
      ],
      "name": "athletes",
      "outputs": [
        {
          "internalType": "uint256",
          "name": "id",
          "type": "uint256"
        },
        {
          "internalType": "string",
          "name": "name",
          "type": "string"
        }
      ],
      "stateMutability": "view",
      "type": "function"
    },
    {
      "inputs": [
        {
          "internalType": "uint256",
          "name": "",
          "type": "uint256"
        }
      ],
      "name": "meets",
      "outputs": [
        {
          "internalType": "uint256",
          "name": "id",
          "type": "uint256"
        },
        {
          "internalType": "string",
          "name": "lable",
          "type": "string"
        },
        {
          "internalType": "string",
          "name": "location",
          "type": "string"
        },
        {
          "internalType": "uint256",
          "name": "time",
          "type": "uint256"
        }
      ],
      "stateMutability": "view",
      "type": "function"
    },
    {
      "inputs": [
        {
          "internalType": "uint256",
          "name": "",
          "type": "uint256"
        }
      ],
      "name": "scores",
      "outputs": [
        {
          "internalType": "uint256",
          "name": "id",
          "type": "uint256"
        },
        {
          "internalType": "uint256",
          "name": "meetID",
          "type": "uint256"
        },
        {
          "internalType": "uint256",
          "name": "athleteID",
          "type": "uint256"
        },
        {
          "internalType": "uint256",
          "name": "maxThrowDistance",
          "type": "uint256"
        }
      ],
      "stateMutability": "view",
      "type": "function"
    }
  ],
  "bytecode": "0x608060405234801561001057600080fd5b50610e2b806100206000396000f3fe608060405234801561001057600080fd5b506004361061009e5760003560e01c806362a2bd631161006657806362a2bd63146101445780637e48fa5e146101ab5780639bdaadcf146101ce578063ebdec429146101e1578063edef8b83146101e957600080fd5b8063240880fb146100a357806329ad9402146100be5780632ee691a3146100c75780634167cac01461011c57806343acb45a14610131575b600080fd5b6100ab61020a565b6040519081526020015b60405180910390f35b6100ab60001981565b6100fc6100d5366004610b3b565b60056020526000908152604090208054600182015460028301546003909301549192909184565b6040805194855260208501939093529183015260608201526080016100b5565b61012f61012a366004610ad1565b61021a565b005b61012f61013f366004610a96565b610557565b61012f610152366004610b53565b6040805160808101825283815260008481526005602081815284832060018101805483870190815260028301805498880198895260608801998a5299909552929091529251835590519055905190925551600390910155565b6101be6101b9366004610b3b565b6105e5565b6040516100b59493929190610c3c565b61012f6101dc366004610ad1565b61071e565b6000546100ab565b6101fc6101f7366004610b3b565b6107e3565b6040516100b5929190610c23565b600061021560015490565b905090565b600061022560015490565b90506000196000610234815490565b9050600019600061024460025490565b905060005b8581101561032357600081815260036020526040902060010180546102f6919061027290610c79565b80601f016020809104026020016040519081016040528092919081815260200182805461029e90610c79565b80156102eb5780601f106102c0576101008083540402835291602001916102eb565b820191906000526020600020905b8154815290600101906020018083116102ce57829003601f168201915b50505050508a610888565b15610311576000818152600360205260409020549450610323565b8061031b81610cb4565b915050610249565b5060001984141561035a576103506040518060a0016040528060638152602001610d62606391398961089b565b5050505050505050565b60005b83811015610437576000818152600460205260409020600101805461040a919061038690610c79565b80601f01602080910402602001604051908101604052809291908181526020018280546103b290610c79565b80156103ff5780601f106103d4576101008083540402835291602001916103ff565b820191906000526020600020905b8154815290600101906020018083116103e257829003601f168201915b505050505089610888565b15610425576000818152600460205260409020549250610437565b8061042f81610cb4565b91505061035d565b50600019821415610464576103506040518060800160405280604d8152602001610cf2604d91398861089b565b60005b818110156104d4576000818152600560205260409020600201548514801561049f575060008181526005602052604090206001015483145b156104c25760009081526005602052604090206003019590955550505050505050565b806104cc81610cb4565b915050610467565b506104e3600280546001019055565b60405180608001604052806104f760025490565b8152602001838152602001858152602001878152506005600061051960025490565b815260208082019290925260409081016000208351815591830151600183015582015160028201556060909101516003909101555050505050505050565b610579604051806060016040528060238152602001610d3f602391398261089b565b610587600180546001019055565b604051806040016040528061059b60015490565b8152602001829052600360006105b060015490565b81526020808201929092526040016000208251815582820151805191926105df92600185019290910190610976565b50505050565b6004602052600090815260409020805460018201805491929161060790610c79565b80601f016020809104026020016040519081016040528092919081815260200182805461063390610c79565b80156106805780601f1061065557610100808354040283529160200191610680565b820191906000526020600020905b81548152906001019060200180831161066357829003601f168201915b50505050509080600201805461069590610c79565b80601f01602080910402602001604051908101604052809291908181526020018280546106c190610c79565b801561070e5780601f106106e35761010080835404028352916020019161070e565b820191906000526020600020905b8154815290600101906020018083116106f157829003601f168201915b5050505050908060030154905084565b610741604051806060016040528060318152602001610dc56031913983836108e4565b61074f600080546001019055565b604051806080016040528061076360005490565b8152602001848152602001838152602001828152506004600061078560005490565b81526020808201929092526040016000208251815582820151805191926107b492600185019290910190610976565b50604082015180516107d0916002840191602090910190610976565b5060608201518160030155905050505050565b6003602052600090815260409020805460018201805491929161080590610c79565b80601f016020809104026020016040519081016040528092919081815260200182805461083190610c79565b801561087e5780601f106108535761010080835404028352916020019161087e565b820191906000526020600020905b81548152906001019060200180831161086157829003601f168201915b5050505050905082565b60006108948383610930565b9392505050565b6108e082826040516024016108b1929190610bbf565b60408051601f198184030181529190526020810180516001600160e01b0316634b5c427760e01b179052610955565b5050565b61092b8383836040516024016108fc93929190610bed565b60408051601f198184030181529190526020810180516001600160e01b031663f362ca5960e01b179052610955565b505050565b6000815183511480156108945750508051602091820120825192909101919091201490565b80516a636f6e736f6c652e6c6f67602083016000808483855afa5050505050565b82805461098290610c79565b90600052602060002090601f0160209004810192826109a457600085556109ea565b82601f106109bd57805160ff19168380011785556109ea565b828001600101855582156109ea579182015b828111156109ea5782518255916020019190600101906109cf565b506109f69291506109fa565b5090565b5b808211156109f657600081556001016109fb565b600082601f830112610a1f578081fd5b813567ffffffffffffffff80821115610a3a57610a3a610cdb565b604051601f8301601f19908116603f01168101908282118183101715610a6257610a62610cdb565b81604052838152866020858801011115610a7a578485fd5b8360208701602083013792830160200193909352509392505050565b600060208284031215610aa7578081fd5b813567ffffffffffffffff811115610abd578182fd5b610ac984828501610a0f565b949350505050565b600080600060608486031215610ae5578182fd5b833567ffffffffffffffff80821115610afc578384fd5b610b0887838801610a0f565b94506020860135915080821115610b1d578384fd5b50610b2a86828701610a0f565b925050604084013590509250925092565b600060208284031215610b4c578081fd5b5035919050565b60008060408385031215610b65578182fd5b50508035926020909101359150565b60008151808452815b81811015610b9957602081850181015186830182015201610b7d565b81811115610baa5782602083870101525b50601f01601f19169290920160200192915050565b604081526000610bd26040830185610b74565b8281036020840152610be48185610b74565b95945050505050565b606081526000610c006060830186610b74565b8281036020840152610c128186610b74565b915050826040830152949350505050565b828152604060208201526000610ac96040830184610b74565b848152608060208201526000610c556080830186610b74565b8281036040840152610c678186610b74565b91505082606083015295945050505050565b600181811c90821680610c8d57607f821691505b60208210811415610cae57634e487b7160e01b600052602260045260246000fd5b50919050565b6000600019821415610cd457634e487b7160e01b81526011600452602481fd5b5060010190565b634e487b7160e01b600052604160045260246000fdfe496e76616c6964206d65657420656e74657265643a2027257327206d616b65207375726520746865206d65657420686173206265656e20616464656420746f20746865206d656574206c6973744372656174657320616e204174686c6574652077697468206e616d653a2027257327204e6f204174686c6574652077697468206e616d653a202725732720686173206265656e207265636f72646564206d616b65207375726520746861742074686973204174686c65746520697320696e20746865206c697374206f66204174686c65746573437265617465732061204d6565742077697468204c6f636174696f6e3a202725732720616e642054696d653a2027256427a264697066735822122053c7bc449d3b0edf0f746580c6fb5e111d51a40bf85612f22d788187ed7d9c1264736f6c63430008040033",
  "linkReferences": {},
  "deployedLinkReferences": {}
}