{
  "_format": "hh-sol-artifact-1",
  "contractName": "ScoreManager",
  "sourceName": "contracts/ScoreManager.sol",
  "abi": [
    {
      "inputs": [
        {
          "internalType": "uint256",
          "name": "aScoreID",
          "type": "uint256"
        },
        {
          "internalType": "uint256",
          "name": "aNewMaxThrow",
          "type": "uint256"
        }
      ],
      "name": "ChangeAScore",
      "outputs": [],
      "stateMutability": "nonpayable",
      "type": "function"
    },
    {
      "inputs": [
        {
          "internalType": "string",
          "name": "anAthletsName",
          "type": "string"
        }
      ],
      "name": "CreateAthlete",
      "outputs": [],
      "stateMutability": "nonpayable",
      "type": "function"
    },
    {
      "inputs": [
        {
          "internalType": "string",
          "name": "aLable",
          "type": "string"
        },
        {
          "internalType": "string",
          "name": "aMeetsLocation",
          "type": "string"
        },
        {
          "internalType": "uint256",
          "name": "aMeetsTime",
          "type": "uint256"
        }
      ],
      "name": "CreateMeet",
      "outputs": [],
      "stateMutability": "nonpayable",
      "type": "function"
    },
    {
      "inputs": [
        {
          "internalType": "string",
          "name": "anAthletsName",
          "type": "string"
        },
        {
          "internalType": "string",
          "name": "aMeetsName",
          "type": "string"
        },
        {
          "internalType": "uint256",
          "name": "aThrowDistance",
          "type": "uint256"
        }
      ],
      "name": "EnterAScore",
      "outputs": [],
      "stateMutability": "nonpayable",
      "type": "function"
    },
    {
      "inputs": [],
      "name": "GetAthletsCount",
      "outputs": [
        {
          "internalType": "uint256",
          "name": "",
          "type": "uint256"
        }
      ],
      "stateMutability": "view",
      "type": "function"
    },
    {
      "inputs": [],
      "name": "GetMeetsCount",
      "outputs": [
        {
          "internalType": "uint256",
          "name": "",
          "type": "uint256"
        }
      ],
      "stateMutability": "view",
      "type": "function"
    },
    {
      "inputs": [],
      "name": "GetRecordThrows",
      "outputs": [
        {
          "internalType": "uint256",
          "name": "",
          "type": "uint256"
        }
      ],
      "stateMutability": "view",
      "type": "function"
    },
    {
      "inputs": [],
      "name": "MAX_INT_TYPE",
      "outputs": [
        {
          "internalType": "uint256",
          "name": "",
          "type": "uint256"
        }
      ],
      "stateMutability": "view",
      "type": "function"
    },
    {
      "inputs": [
        {
          "internalType": "uint256",
          "name": "",
          "type": "uint256"
        }
      ],
      "name": "athletes",
      "outputs": [
        {
          "internalType": "uint256",
          "name": "id",
          "type": "uint256"
        },
        {
          "internalType": "string",
          "name": "name",
          "type": "string"
        }
      ],
      "stateMutability": "view",
      "type": "function"
    },
    {
      "inputs": [
        {
          "internalType": "uint256",
          "name": "",
          "type": "uint256"
        }
      ],
      "name": "meets",
      "outputs": [
        {
          "internalType": "uint256",
          "name": "id",
          "type": "uint256"
        },
        {
          "internalType": "string",
          "name": "lable",
          "type": "string"
        },
        {
          "internalType": "string",
          "name": "location",
          "type": "string"
        },
        {
          "internalType": "uint256",
          "name": "time",
          "type": "uint256"
        }
      ],
      "stateMutability": "view",
      "type": "function"
    },
    {
      "inputs": [
        {
          "internalType": "uint256",
          "name": "",
          "type": "uint256"
        }
      ],
      "name": "scores",
      "outputs": [
        {
          "internalType": "uint256",
          "name": "id",
          "type": "uint256"
        },
        {
          "internalType": "uint256",
          "name": "meetID",
          "type": "uint256"
        },
        {
          "internalType": "uint256",
          "name": "athleteID",
          "type": "uint256"
        },
        {
          "internalType": "uint256",
          "name": "maxThrowDistance",
          "type": "uint256"
        }
      ],
      "stateMutability": "view",
      "type": "function"
    }
  ],
  "bytecode": "0x608060405234801561001057600080fd5b50610e39806100206000396000f3fe608060405234801561001057600080fd5b50600436106100a95760003560e01c806343acb45a1161007157806343acb45a1461013f57806362a2bd63146101525780637e48fa5e146101b95780639bdaadcf146101dc578063ebdec429146101ef578063edef8b83146101f757600080fd5b80630a7ed910146100ae578063240880fb146100c457806329ad9402146100cc5780632ee691a3146100d55780634167cac01461012a575b600080fd5b60005b6040519081526020015b60405180910390f35b6100b1610218565b6100b160001981565b61010a6100e3366004610b49565b60056020526000908152604090208054600182015460028301546003909301549192909184565b6040805194855260208501939093529183015260608201526080016100bb565b61013d610138366004610adf565b610228565b005b61013d61014d366004610aa4565b610565565b61013d610160366004610b61565b6040805160808101825283815260008481526005602081815284832060018101805483870190815260028301805498880198895260608801998a5299909552929091529251835590519055905190925551600390910155565b6101cc6101c7366004610b49565b6105f3565b6040516100bb9493929190610c4a565b61013d6101ea366004610adf565b61072c565b6000546100b1565b61020a610205366004610b49565b6107f1565b6040516100bb929190610c31565b600061022360015490565b905090565b600061023360015490565b90506000196000610242815490565b9050600019600061025260025490565b905060005b858110156103315760008181526003602052604090206001018054610304919061028090610c87565b80601f01602080910402602001604051908101604052809291908181526020018280546102ac90610c87565b80156102f95780601f106102ce576101008083540402835291602001916102f9565b820191906000526020600020905b8154815290600101906020018083116102dc57829003601f168201915b50505050508a610896565b1561031f576000818152600360205260409020549450610331565b8061032981610cc2565b915050610257565b506000198414156103685761035e6040518060a0016040528060638152602001610d7060639139896108a9565b5050505050505050565b60005b838110156104455760008181526004602052604090206001018054610418919061039490610c87565b80601f01602080910402602001604051908101604052809291908181526020018280546103c090610c87565b801561040d5780601f106103e25761010080835404028352916020019161040d565b820191906000526020600020905b8154815290600101906020018083116103f057829003601f168201915b505050505089610896565b15610433576000818152600460205260409020549250610445565b8061043d81610cc2565b91505061036b565b506000198214156104725761035e6040518060800160405280604d8152602001610d00604d9139886108a9565b60005b818110156104e257600081815260056020526040902060020154851480156104ad575060008181526005602052604090206001015483145b156104d05760009081526005602052604090206003019590955550505050505050565b806104da81610cc2565b915050610475565b506104f1600280546001019055565b604051806080016040528061050560025490565b8152602001838152602001858152602001878152506005600061052760025490565b815260208082019290925260409081016000208351815591830151600183015582015160028201556060909101516003909101555050505050505050565b610587604051806060016040528060238152602001610d4d60239139826108a9565b610595600180546001019055565b60405180604001604052806105a960015490565b8152602001829052600360006105be60015490565b81526020808201929092526040016000208251815582820151805191926105ed92600185019290910190610984565b50505050565b6004602052600090815260409020805460018201805491929161061590610c87565b80601f016020809104026020016040519081016040528092919081815260200182805461064190610c87565b801561068e5780601f106106635761010080835404028352916020019161068e565b820191906000526020600020905b81548152906001019060200180831161067157829003601f168201915b5050505050908060020180546106a390610c87565b80601f01602080910402602001604051908101604052809291908181526020018280546106cf90610c87565b801561071c5780601f106106f15761010080835404028352916020019161071c565b820191906000526020600020905b8154815290600101906020018083116106ff57829003601f168201915b5050505050908060030154905084565b61074f604051806060016040528060318152602001610dd36031913983836108f2565b61075d600080546001019055565b604051806080016040528061077160005490565b8152602001848152602001838152602001828152506004600061079360005490565b81526020808201929092526040016000208251815582820151805191926107c292600185019290910190610984565b50604082015180516107de916002840191602090910190610984565b5060608201518160030155905050505050565b6003602052600090815260409020805460018201805491929161081390610c87565b80601f016020809104026020016040519081016040528092919081815260200182805461083f90610c87565b801561088c5780601f106108615761010080835404028352916020019161088c565b820191906000526020600020905b81548152906001019060200180831161086f57829003601f168201915b5050505050905082565b60006108a2838361093e565b9392505050565b6108ee82826040516024016108bf929190610bcd565b60408051601f198184030181529190526020810180516001600160e01b0316634b5c427760e01b179052610963565b5050565b61093983838360405160240161090a93929190610bfb565b60408051601f198184030181529190526020810180516001600160e01b031663f362ca5960e01b179052610963565b505050565b6000815183511480156108a25750508051602091820120825192909101919091201490565b80516a636f6e736f6c652e6c6f67602083016000808483855afa5050505050565b82805461099090610c87565b90600052602060002090601f0160209004810192826109b257600085556109f8565b82601f106109cb57805160ff19168380011785556109f8565b828001600101855582156109f8579182015b828111156109f85782518255916020019190600101906109dd565b50610a04929150610a08565b5090565b5b80821115610a045760008155600101610a09565b600082601f830112610a2d578081fd5b813567ffffffffffffffff80821115610a4857610a48610ce9565b604051601f8301601f19908116603f01168101908282118183101715610a7057610a70610ce9565b81604052838152866020858801011115610a88578485fd5b8360208701602083013792830160200193909352509392505050565b600060208284031215610ab5578081fd5b813567ffffffffffffffff811115610acb578182fd5b610ad784828501610a1d565b949350505050565b600080600060608486031215610af3578182fd5b833567ffffffffffffffff80821115610b0a578384fd5b610b1687838801610a1d565b94506020860135915080821115610b2b578384fd5b50610b3886828701610a1d565b925050604084013590509250925092565b600060208284031215610b5a578081fd5b5035919050565b60008060408385031215610b73578182fd5b50508035926020909101359150565b60008151808452815b81811015610ba757602081850181015186830182015201610b8b565b81811115610bb85782602083870101525b50601f01601f19169290920160200192915050565b604081526000610be06040830185610b82565b8281036020840152610bf28185610b82565b95945050505050565b606081526000610c0e6060830186610b82565b8281036020840152610c208186610b82565b915050826040830152949350505050565b828152604060208201526000610ad76040830184610b82565b848152608060208201526000610c636080830186610b82565b8281036040840152610c758186610b82565b91505082606083015295945050505050565b600181811c90821680610c9b57607f821691505b60208210811415610cbc57634e487b7160e01b600052602260045260246000fd5b50919050565b6000600019821415610ce257634e487b7160e01b81526011600452602481fd5b5060010190565b634e487b7160e01b600052604160045260246000fdfe496e76616c6964206d65657420656e74657265643a2027257327206d616b65207375726520746865206d65657420686173206265656e20616464656420746f20746865206d656574206c6973744372656174657320616e204174686c6574652077697468206e616d653a2027257327204e6f204174686c6574652077697468206e616d653a202725732720686173206265656e207265636f72646564206d616b65207375726520746861742074686973204174686c65746520697320696e20746865206c697374206f66204174686c65746573437265617465732061204d6565742077697468204c6f636174696f6e3a202725732720616e642054696d653a2027256427a26469706673582212201bde8484f6a6616d9d67083ed917917ec891aee11f24bee7a5511437b101fefe64736f6c63430008040033",
  "linkReferences": {},
  "deployedLinkReferences": {}
}