{
  "_format": "hh-sol-artifact-1",
  "contractName": "ScoreManager",
  "sourceName": "contracts/ScoreManager.sol",
  "abi": [
    {
      "inputs": [
        {
          "internalType": "uint256",
          "name": "aScoreID",
          "type": "uint256"
        },
        {
          "internalType": "uint256",
          "name": "aNewMaxThrow",
          "type": "uint256"
        }
      ],
      "name": "ChangeAScore",
      "outputs": [],
      "stateMutability": "nonpayable",
      "type": "function"
    },
    {
      "inputs": [
        {
          "internalType": "string",
          "name": "anAthletsName",
          "type": "string"
        }
      ],
      "name": "CreateAthlete",
      "outputs": [],
      "stateMutability": "nonpayable",
      "type": "function"
    },
    {
      "inputs": [
        {
          "internalType": "string",
          "name": "aLable",
          "type": "string"
        },
        {
          "internalType": "string",
          "name": "aMeetsLocation",
          "type": "string"
        },
        {
          "internalType": "uint256",
          "name": "aMeetsTime",
          "type": "uint256"
        }
      ],
      "name": "CreateMeet",
      "outputs": [],
      "stateMutability": "nonpayable",
      "type": "function"
    },
    {
      "inputs": [
        {
          "internalType": "string",
          "name": "anAthletsName",
          "type": "string"
        },
        {
          "internalType": "string",
          "name": "aMeetsName",
          "type": "string"
        },
        {
          "internalType": "uint256",
          "name": "aThrowDistance",
          "type": "uint256"
        }
      ],
      "name": "EnterAScore",
      "outputs": [],
      "stateMutability": "nonpayable",
      "type": "function"
    },
    {
      "inputs": [],
      "name": "GetAthletsCount",
      "outputs": [
        {
          "internalType": "uint256",
          "name": "",
          "type": "uint256"
        }
      ],
      "stateMutability": "view",
      "type": "function"
    },
    {
      "inputs": [],
      "name": "GetMeetsCount",
      "outputs": [
        {
          "internalType": "uint256",
          "name": "",
          "type": "uint256"
        }
      ],
      "stateMutability": "view",
      "type": "function"
    },
    {
      "inputs": [],
      "name": "MAX_INT_TYPE",
      "outputs": [
        {
          "internalType": "uint256",
          "name": "",
          "type": "uint256"
        }
      ],
      "stateMutability": "view",
      "type": "function"
    },
    {
      "inputs": [
        {
          "internalType": "uint256",
          "name": "",
          "type": "uint256"
        }
      ],
      "name": "athletes",
      "outputs": [
        {
          "internalType": "uint256",
          "name": "id",
          "type": "uint256"
        },
        {
          "internalType": "string",
          "name": "name",
          "type": "string"
        }
      ],
      "stateMutability": "view",
      "type": "function"
    },
    {
      "inputs": [
        {
          "internalType": "uint256",
          "name": "",
          "type": "uint256"
        }
      ],
      "name": "meets",
      "outputs": [
        {
          "internalType": "uint256",
          "name": "id",
          "type": "uint256"
        },
        {
          "internalType": "string",
          "name": "lable",
          "type": "string"
        },
        {
          "internalType": "string",
          "name": "location",
          "type": "string"
        },
        {
          "internalType": "uint256",
          "name": "time",
          "type": "uint256"
        }
      ],
      "stateMutability": "view",
      "type": "function"
    },
    {
      "inputs": [
        {
          "internalType": "uint256",
          "name": "",
          "type": "uint256"
        }
      ],
      "name": "scores",
      "outputs": [
        {
          "internalType": "uint256",
          "name": "id",
          "type": "uint256"
        },
        {
          "internalType": "uint256",
          "name": "meetID",
          "type": "uint256"
        },
        {
          "internalType": "uint256",
          "name": "athleteID",
          "type": "uint256"
        },
        {
          "internalType": "uint256",
          "name": "maxThrowDistance",
          "type": "uint256"
        }
      ],
      "stateMutability": "view",
      "type": "function"
    }
  ],
  "bytecode": "0x608060405234801561001057600080fd5b50611354806100206000396000f3fe608060405234801561001057600080fd5b506004361061009e5760003560e01c806362a2bd631161006657806362a2bd631461014a5780637e48fa5e146101665780639bdaadcf14610199578063ebdec429146101b5578063edef8b83146101d35761009e565b8063240880fb146100a357806329ad9402146100c15780632ee691a3146100df5780634167cac01461011257806343acb45a1461012e575b600080fd5b6100ab610204565b6040516100b89190610f18565b60405180910390f35b6100c9610215565b6040516100d69190610f18565b60405180910390f35b6100f960048036038101906100f49190610def565b610239565b6040516101099493929190610fb6565b60405180910390f35b61012c60048036038101906101279190610d70565b610269565b005b61014860048036038101906101439190610d2f565b610663565b005b610164600480360381019061015f9190610e18565b6106f6565b005b610180600480360381019061017b9190610def565b610785565b6040516101909493929190610f63565b60405180910390f35b6101b360048036038101906101ae9190610d70565b6108c5565b005b6101bd61098e565b6040516101ca9190610f18565b60405180910390f35b6101ed60048036038101906101e89190610def565b61099f565b6040516101fb929190610f33565b60405180910390f35b60006102106001610a4b565b905090565b7fffffffffffffffffffffffffffffffffffffffffffffffffffffffffffffffff81565b60056020528060005260406000206000915090508060000154908060010154908060020154908060030154905084565b60006102756001610a4b565b905060007fffffffffffffffffffffffffffffffffffffffffffffffffffffffffffffffff905060006102a86000610a4b565b905060007fffffffffffffffffffffffffffffffffffffffffffffffffffffffffffffffff905060006102db6002610a4b565b905060005b858110156103c65761039060036000838152602001908152602001600020600101805461030c906110b9565b80601f0160208091040260200160405190810160405280929190818152602001828054610338906110b9565b80156103855780601f1061035a57610100808354040283529160200191610385565b820191906000526020600020905b81548152906001019060200180831161036857829003601f168201915b50505050508a610a59565b156103b357600360008281526020019081526020016000206000015494506103c6565b80806103be9061111c565b9150506102e0565b507fffffffffffffffffffffffffffffffffffffffffffffffffffffffffffffffff84141561041b576104116040518060a001604052806063815260200161128b6063913989610a6d565b505050505061065e565b60005b83811015610504576104ce60046000838152602001908152602001600020600101805461044a906110b9565b80601f0160208091040260200160405190810160405280929190818152602001828054610476906110b9565b80156104c35780601f10610498576101008083540402835291602001916104c3565b820191906000526020600020905b8154815290600101906020018083116104a657829003601f168201915b505050505089610a59565b156104f15760046000828152602001908152602001600020600001549250610504565b80806104fc9061111c565b91505061041e565b507fffffffffffffffffffffffffffffffffffffffffffffffffffffffffffffffff8214156105595761054f6040518060800160405280604d815260200161121b604d913988610a6d565b505050505061065e565b60005b818110156105dc5784600560008381526020019081526020016000206002015414801561059e5750826005600083815260200190815260200160002060010154145b156105c95786600560008381526020019081526020016000206003018190555050505050505061065e565b80806105d49061111c565b91505061055c565b506105e76002610b09565b60405180608001604052806105fc6002610a4b565b8152602001838152602001858152602001878152506005600061061f6002610a4b565b81526020019081526020016000206000820151816000015560208201518160010155604082015181600201556060820151816003015590505050505050505b505050565b6106856040518060600160405280602381526020016112686023913982610a6d565b61068f6001610b09565b60405180604001604052806106a46001610a4b565b815260200182815250600360006106bb6001610a4b565b81526020019081526020016000206000820151816000015560208201518160010190805190602001906106ef929190610c0f565b5090505050565b604051806080016040528083815260200160056000858152602001908152602001600020600101548152602001600560008581526020019081526020016000206002015481526020018281525060056000848152602001908152602001600020600082015181600001556020820151816001015560408201518160020155606082015181600301559050505050565b60046020528060005260406000206000915090508060000154908060010180546107ae906110b9565b80601f01602080910402602001604051908101604052809291908181526020018280546107da906110b9565b80156108275780601f106107fc57610100808354040283529160200191610827565b820191906000526020600020905b81548152906001019060200180831161080a57829003601f168201915b50505050509080600201805461083c906110b9565b80601f0160208091040260200160405190810160405280929190818152602001828054610868906110b9565b80156108b55780601f1061088a576101008083540402835291602001916108b5565b820191906000526020600020905b81548152906001019060200180831161089857829003601f168201915b5050505050908060030154905084565b6108e86040518060600160405280603181526020016112ee603191398383610b1f565b6108f26000610b09565b60405180608001604052806109076000610a4b565b8152602001848152602001838152602001828152506004600061092a6000610a4b565b815260200190815260200160002060008201518160000155602082015181600101908051906020019061095e929190610c0f565b50604082015181600201908051906020019061097b929190610c0f565b5060608201518160030155905050505050565b600061099a6000610a4b565b905090565b60036020528060005260406000206000915090508060000154908060010180546109c8906110b9565b80601f01602080910402602001604051908101604052809291908181526020018280546109f4906110b9565b8015610a415780601f10610a1657610100808354040283529160200191610a41565b820191906000526020600020905b815481529060010190602001808311610a2457829003601f168201915b5050505050905082565b600081600001549050919050565b6000610a658383610bbe565b905092915050565b610b058282604051602401610a83929190610e9c565b6040516020818303038152906040527f4b5c4277000000000000000000000000000000000000000000000000000000007bffffffffffffffffffffffffffffffffffffffffffffffffffffffff19166020820180517bffffffffffffffffffffffffffffffffffffffffffffffffffffffff8381831617835250505050610be6565b5050565b6001816000016000828254019250508190555050565b610bb9838383604051602401610b3793929190610ed3565b6040516020818303038152906040527ff362ca59000000000000000000000000000000000000000000000000000000007bffffffffffffffffffffffffffffffffffffffffffffffffffffffff19166020820180517bffffffffffffffffffffffffffffffffffffffffffffffffffffffff8381831617835250505050610be6565b505050565b600081518351148015610bde575081805190602001208380519060200120145b905092915050565b60008151905060006a636f6e736f6c652e6c6f679050602083016000808483855afa5050505050565b828054610c1b906110b9565b90600052602060002090601f016020900481019282610c3d5760008555610c84565b82601f10610c5657805160ff1916838001178555610c84565b82800160010185558215610c84579182015b82811115610c83578251825591602001919060010190610c68565b5b509050610c919190610c95565b5090565b5b80821115610cae576000816000905550600101610c96565b5090565b6000610cc5610cc084611020565b610ffb565b905082815260208101848484011115610cdd57600080fd5b610ce8848285611077565b509392505050565b600082601f830112610d0157600080fd5b8135610d11848260208601610cb2565b91505092915050565b600081359050610d2981611203565b92915050565b600060208284031215610d4157600080fd5b600082013567ffffffffffffffff811115610d5b57600080fd5b610d6784828501610cf0565b91505092915050565b600080600060608486031215610d8557600080fd5b600084013567ffffffffffffffff811115610d9f57600080fd5b610dab86828701610cf0565b935050602084013567ffffffffffffffff811115610dc857600080fd5b610dd486828701610cf0565b9250506040610de586828701610d1a565b9150509250925092565b600060208284031215610e0157600080fd5b6000610e0f84828501610d1a565b91505092915050565b60008060408385031215610e2b57600080fd5b6000610e3985828601610d1a565b9250506020610e4a85828601610d1a565b9150509250929050565b6000610e5f82611051565b610e69818561105c565b9350610e79818560208601611086565b610e82816111f2565b840191505092915050565b610e968161106d565b82525050565b60006040820190508181036000830152610eb68185610e54565b90508181036020830152610eca8184610e54565b90509392505050565b60006060820190508181036000830152610eed8186610e54565b90508181036020830152610f018185610e54565b9050610f106040830184610e8d565b949350505050565b6000602082019050610f2d6000830184610e8d565b92915050565b6000604082019050610f486000830185610e8d565b8181036020830152610f5a8184610e54565b90509392505050565b6000608082019050610f786000830187610e8d565b8181036020830152610f8a8186610e54565b90508181036040830152610f9e8185610e54565b9050610fad6060830184610e8d565b95945050505050565b6000608082019050610fcb6000830187610e8d565b610fd86020830186610e8d565b610fe56040830185610e8d565b610ff26060830184610e8d565b95945050505050565b6000611005611016565b905061101182826110eb565b919050565b6000604051905090565b600067ffffffffffffffff82111561103b5761103a6111c3565b5b611044826111f2565b9050602081019050919050565b600081519050919050565b600082825260208201905092915050565b6000819050919050565b82818337600083830152505050565b60005b838110156110a4578082015181840152602081019050611089565b838111156110b3576000848401525b50505050565b600060028204905060018216806110d157607f821691505b602082108114156110e5576110e4611194565b5b50919050565b6110f4826111f2565b810181811067ffffffffffffffff82111715611113576111126111c3565b5b80604052505050565b60006111278261106d565b91507fffffffffffffffffffffffffffffffffffffffffffffffffffffffffffffffff82141561115a57611159611165565b5b600182019050919050565b7f4e487b7100000000000000000000000000000000000000000000000000000000600052601160045260246000fd5b7f4e487b7100000000000000000000000000000000000000000000000000000000600052602260045260246000fd5b7f4e487b7100000000000000000000000000000000000000000000000000000000600052604160045260246000fd5b6000601f19601f8301169050919050565b61120c8161106d565b811461121757600080fd5b5056fe496e76616c6964206d65657420656e74657265643a2027257327206d616b65207375726520746865206d65657420686173206265656e20616464656420746f20746865206d656574206c6973744372656174657320616e204174686c6574652077697468206e616d653a2027257327204e6f204174686c6574652077697468206e616d653a202725732720686173206265656e207265636f72646564206d616b65207375726520746861742074686973204174686c65746520697320696e20746865206c697374206f66204174686c65746573437265617465732061204d6565742077697468204c6f636174696f6e3a202725732720616e642054696d653a2027256427a26469706673582212205417ef81f22272da41180ff92b382106e1a3c2bd077b2ed5a9c9f99953d0045a64736f6c63430008040033",
  "linkReferences": {},
  "deployedLinkReferences": {}
}