{
  "_format": "hh-sol-artifact-1",
  "contractName": "ScoreManager",
  "sourceName": "contracts/ScoreManager.sol",
  "abi": [
    {
      "inputs": [
        {
          "internalType": "uint256",
          "name": "aScoreID",
          "type": "uint256"
        },
        {
          "internalType": "uint256",
          "name": "aNewMaxThrow",
          "type": "uint256"
        }
      ],
      "name": "ChangeAScore",
      "outputs": [],
      "stateMutability": "nonpayable",
      "type": "function"
    },
    {
      "inputs": [
        {
          "internalType": "string",
          "name": "anAthletsName",
          "type": "string"
        }
      ],
      "name": "CreateAthlete",
      "outputs": [],
      "stateMutability": "nonpayable",
      "type": "function"
    },
    {
      "inputs": [
        {
          "internalType": "string",
          "name": "aMeetsLocation",
          "type": "string"
        },
        {
          "internalType": "uint256",
          "name": "aMeetsTime",
          "type": "uint256"
        }
      ],
      "name": "CreateMeet",
      "outputs": [],
      "stateMutability": "nonpayable",
      "type": "function"
    },
    {
      "inputs": [
        {
          "internalType": "uint256",
          "name": "anAthletsID",
          "type": "uint256"
        },
        {
          "internalType": "uint256",
          "name": "aMeetsID",
          "type": "uint256"
        },
        {
          "internalType": "uint256",
          "name": "aMaxThrow",
          "type": "uint256"
        }
      ],
      "name": "EnterAScore",
      "outputs": [],
      "stateMutability": "nonpayable",
      "type": "function"
    },
    {
      "inputs": [],
      "name": "GetAthletsCount",
      "outputs": [
        {
          "internalType": "uint256",
          "name": "",
          "type": "uint256"
        }
      ],
      "stateMutability": "view",
      "type": "function"
    },
    {
      "inputs": [],
      "name": "GetMeetsCount",
      "outputs": [
        {
          "internalType": "uint256",
          "name": "",
          "type": "uint256"
        }
      ],
      "stateMutability": "view",
      "type": "function"
    },
    {
      "inputs": [
        {
          "internalType": "uint256",
          "name": "",
          "type": "uint256"
        }
      ],
      "name": "athletes",
      "outputs": [
        {
          "internalType": "uint256",
          "name": "id",
          "type": "uint256"
        },
        {
          "internalType": "string",
          "name": "name",
          "type": "string"
        }
      ],
      "stateMutability": "view",
      "type": "function"
    },
    {
      "inputs": [],
      "name": "athletesCount",
      "outputs": [
        {
          "internalType": "uint256",
          "name": "",
          "type": "uint256"
        }
      ],
      "stateMutability": "view",
      "type": "function"
    },
    {
      "inputs": [
        {
          "internalType": "uint256",
          "name": "",
          "type": "uint256"
        }
      ],
      "name": "meets",
      "outputs": [
        {
          "internalType": "uint256",
          "name": "id",
          "type": "uint256"
        },
        {
          "internalType": "string",
          "name": "location",
          "type": "string"
        },
        {
          "internalType": "uint256",
          "name": "time",
          "type": "uint256"
        }
      ],
      "stateMutability": "view",
      "type": "function"
    },
    {
      "inputs": [],
      "name": "meetsCount",
      "outputs": [
        {
          "internalType": "uint256",
          "name": "",
          "type": "uint256"
        }
      ],
      "stateMutability": "view",
      "type": "function"
    },
    {
      "inputs": [
        {
          "internalType": "uint256",
          "name": "",
          "type": "uint256"
        }
      ],
      "name": "scores",
      "outputs": [
        {
          "internalType": "uint256",
          "name": "id",
          "type": "uint256"
        },
        {
          "internalType": "uint256",
          "name": "meetID",
          "type": "uint256"
        },
        {
          "internalType": "uint256",
          "name": "athleteID",
          "type": "uint256"
        },
        {
          "internalType": "uint256",
          "name": "maxThrowDistance",
          "type": "uint256"
        }
      ],
      "stateMutability": "view",
      "type": "function"
    },
    {
      "inputs": [],
      "name": "scoresCount",
      "outputs": [
        {
          "internalType": "uint256",
          "name": "",
          "type": "uint256"
        }
      ],
      "stateMutability": "view",
      "type": "function"
    }
  ],
  "bytecode": "0x6080604052600080556000600155600060025534801561001e57600080fd5b50610e558061002e6000396000f3fe608060405234801561001057600080fd5b50600436106100b45760003560e01c80637e48fa5e116100715780637e48fa5e1461017c578063865af0de146101ae578063c78c52e4146101ca578063cdfa3cc6146101e8578063ebdec42914610206578063edef8b8314610224576100b4565b8063240880fb146100b95780632ee691a3146100d757806343acb45a1461010a57806362a2bd63146101265780636cf569071461014257806376e2233e14610160575b600080fd5b6100c1610255565b6040516100ce9190610ade565b60405180910390f35b6100f160048036038101906100ec9190610966565b61025f565b6040516101019493929190610b67565b60405180910390f35b610124600480360381019061011f91906108d1565b61028f565b005b610140600480360381019061013b919061098f565b610322565b005b61014a6103b1565b6040516101579190610ade565b60405180910390f35b61017a600480360381019061017591906109cb565b6103b7565b005b61019660048036038101906101919190610966565b610437565b6040516101a593929190610b29565b60405180910390f35b6101c860048036038101906101c39190610912565b6104e9565b005b6101d261058c565b6040516101df9190610ade565b60405180910390f35b6101f0610592565b6040516101fd9190610ade565b60405180910390f35b61020e610598565b60405161021b9190610ade565b60405180910390f35b61023e60048036038101906102399190610966565b6105a1565b60405161024c929190610af9565b60405180910390f35b6000600154905090565b60056020528060005260406000206000915090508060000154908060010154908060020154908060030154905084565b6102b1604051806060016040528060238152602001610dcc602391398261064d565b600160008154809291906102c490610ccd565b9190505550604051806040016040528060015481526020018281525060036000600154815260200190815260200160002060008201518160000155602082015181600101908051906020019061031b9291906107b1565b5090505050565b604051806080016040528083815260200160056000858152602001908152602001600020600101548152602001600560008581526020019081526020016000206002015481526020018281525060056000848152602001908152602001600020600082015181600001556020820151816001015560408201518160020155606082015181600301559050505050565b60025481565b600260008154809291906103ca90610ccd565b9190505550604051806080016040528060025481526020018381526020018481526020018281525060056000600254815260200190815260200160002060008201518160000155602082015181600101556040820151816002015560608201518160030155905050505050565b600460205280600052604060002060009150905080600001549080600101805461046090610c6a565b80601f016020809104026020016040519081016040528092919081815260200182805461048c90610c6a565b80156104d95780601f106104ae576101008083540402835291602001916104d9565b820191906000526020600020905b8154815290600101906020018083116104bc57829003601f168201915b5050505050908060020154905083565b61050c604051806060016040528060318152602001610def6031913983836106e9565b60008081548092919061051e90610ccd565b91905055506040518060600160405280600054815260200183815260200182815250600460008054815260200190815260200160002060008201518160000155602082015181600101908051906020019061057a9291906107b1565b50604082015181600201559050505050565b60015481565b60005481565b60008054905090565b60036020528060005260406000206000915090508060000154908060010180546105ca90610c6a565b80601f01602080910402602001604051908101604052809291908181526020018280546105f690610c6a565b80156106435780601f1061061857610100808354040283529160200191610643565b820191906000526020600020905b81548152906001019060200180831161062657829003601f168201915b5050505050905082565b6106e58282604051602401610663929190610a62565b6040516020818303038152906040527f4b5c4277000000000000000000000000000000000000000000000000000000007bffffffffffffffffffffffffffffffffffffffffffffffffffffffff19166020820180517bffffffffffffffffffffffffffffffffffffffffffffffffffffffff8381831617835250505050610788565b5050565b61078383838360405160240161070193929190610a99565b6040516020818303038152906040527ff362ca59000000000000000000000000000000000000000000000000000000007bffffffffffffffffffffffffffffffffffffffffffffffffffffffff19166020820180517bffffffffffffffffffffffffffffffffffffffffffffffffffffffff8381831617835250505050610788565b505050565b60008151905060006a636f6e736f6c652e6c6f679050602083016000808483855afa5050505050565b8280546107bd90610c6a565b90600052602060002090601f0160209004810192826107df5760008555610826565b82601f106107f857805160ff1916838001178555610826565b82800160010185558215610826579182015b8281111561082557825182559160200191906001019061080a565b5b5090506108339190610837565b5090565b5b80821115610850576000816000905550600101610838565b5090565b600061086761086284610bd1565b610bac565b90508281526020810184848401111561087f57600080fd5b61088a848285610c28565b509392505050565b600082601f8301126108a357600080fd5b81356108b3848260208601610854565b91505092915050565b6000813590506108cb81610db4565b92915050565b6000602082840312156108e357600080fd5b600082013567ffffffffffffffff8111156108fd57600080fd5b61090984828501610892565b91505092915050565b6000806040838503121561092557600080fd5b600083013567ffffffffffffffff81111561093f57600080fd5b61094b85828601610892565b925050602061095c858286016108bc565b9150509250929050565b60006020828403121561097857600080fd5b6000610986848285016108bc565b91505092915050565b600080604083850312156109a257600080fd5b60006109b0858286016108bc565b92505060206109c1858286016108bc565b9150509250929050565b6000806000606084860312156109e057600080fd5b60006109ee868287016108bc565b93505060206109ff868287016108bc565b9250506040610a10868287016108bc565b9150509250925092565b6000610a2582610c02565b610a2f8185610c0d565b9350610a3f818560208601610c37565b610a4881610da3565b840191505092915050565b610a5c81610c1e565b82525050565b60006040820190508181036000830152610a7c8185610a1a565b90508181036020830152610a908184610a1a565b90509392505050565b60006060820190508181036000830152610ab38186610a1a565b90508181036020830152610ac78185610a1a565b9050610ad66040830184610a53565b949350505050565b6000602082019050610af36000830184610a53565b92915050565b6000604082019050610b0e6000830185610a53565b8181036020830152610b208184610a1a565b90509392505050565b6000606082019050610b3e6000830186610a53565b8181036020830152610b508185610a1a565b9050610b5f6040830184610a53565b949350505050565b6000608082019050610b7c6000830187610a53565b610b896020830186610a53565b610b966040830185610a53565b610ba36060830184610a53565b95945050505050565b6000610bb6610bc7565b9050610bc28282610c9c565b919050565b6000604051905090565b600067ffffffffffffffff821115610bec57610beb610d74565b5b610bf582610da3565b9050602081019050919050565b600081519050919050565b600082825260208201905092915050565b6000819050919050565b82818337600083830152505050565b60005b83811015610c55578082015181840152602081019050610c3a565b83811115610c64576000848401525b50505050565b60006002820490506001821680610c8257607f821691505b60208210811415610c9657610c95610d45565b5b50919050565b610ca582610da3565b810181811067ffffffffffffffff82111715610cc457610cc3610d74565b5b80604052505050565b6000610cd882610c1e565b91507fffffffffffffffffffffffffffffffffffffffffffffffffffffffffffffffff821415610d0b57610d0a610d16565b5b600182019050919050565b7f4e487b7100000000000000000000000000000000000000000000000000000000600052601160045260246000fd5b7f4e487b7100000000000000000000000000000000000000000000000000000000600052602260045260246000fd5b7f4e487b7100000000000000000000000000000000000000000000000000000000600052604160045260246000fd5b6000601f19601f8301169050919050565b610dbd81610c1e565b8114610dc857600080fd5b5056fe4372656174657320616e204174686c6574652077697468206e616d653a202725732720437265617465732061204d6565742077697468204c6f636174696f6e3a202725732720616e642054696d653a2027256427a26469706673582212204bb4e9784e0f3c405c9000db74ddca44c388bbfc6c25592a22145769f77fdef164736f6c63430008040033",
  "linkReferences": {},
  "deployedLinkReferences": {}
}